{
  "_format": "hh-sol-artifact-1",
  "contractName": "BokDAONFTV1",
  "sourceName": "contracts/bok.sol",
  "abi": [
    {
      "inputs": [],
      "stateMutability": "nonpayable",
      "type": "constructor"
    },
    {
      "anonymous": false,
      "inputs": [
        {
          "indexed": true,
          "internalType": "address",
          "name": "owner",
          "type": "address"
        },
        {
          "indexed": true,
          "internalType": "address",
          "name": "approved",
          "type": "address"
        },
        {
          "indexed": true,
          "internalType": "uint256",
          "name": "tokenId",
          "type": "uint256"
        }
      ],
      "name": "Approval",
      "type": "event"
    },
    {
      "anonymous": false,
      "inputs": [
        {
          "indexed": true,
          "internalType": "address",
          "name": "owner",
          "type": "address"
        },
        {
          "indexed": true,
          "internalType": "address",
          "name": "operator",
          "type": "address"
        },
        {
          "indexed": false,
          "internalType": "bool",
          "name": "approved",
          "type": "bool"
        }
      ],
      "name": "ApprovalForAll",
      "type": "event"
    },
    {
      "anonymous": false,
      "inputs": [
        {
          "indexed": false,
          "internalType": "address",
          "name": "sender",
          "type": "address"
        },
        {
          "indexed": false,
          "internalType": "uint256",
          "name": "tokenId",
          "type": "uint256"
        }
      ],
      "name": "NewNFTMinted",
      "type": "event"
    },
    {
      "anonymous": false,
      "inputs": [
        {
          "indexed": true,
          "internalType": "address",
          "name": "from",
          "type": "address"
        },
        {
          "indexed": true,
          "internalType": "address",
          "name": "to",
          "type": "address"
        },
        {
          "indexed": true,
          "internalType": "uint256",
          "name": "tokenId",
          "type": "uint256"
        }
      ],
      "name": "Transfer",
      "type": "event"
    },
    {
      "inputs": [
        {
          "internalType": "address",
          "name": "to",
          "type": "address"
        },
        {
          "internalType": "uint256",
          "name": "tokenId",
          "type": "uint256"
        }
      ],
      "name": "approve",
      "outputs": [],
      "stateMutability": "nonpayable",
      "type": "function"
    },
    {
      "inputs": [
        {
          "internalType": "address",
          "name": "owner",
          "type": "address"
        }
      ],
      "name": "balanceOf",
      "outputs": [
        {
          "internalType": "uint256",
          "name": "",
          "type": "uint256"
        }
      ],
      "stateMutability": "view",
      "type": "function"
    },
    {
      "inputs": [
        {
          "internalType": "uint256",
          "name": "tokenId",
          "type": "uint256"
        }
      ],
      "name": "getApproved",
      "outputs": [
        {
          "internalType": "address",
          "name": "",
          "type": "address"
        }
      ],
      "stateMutability": "view",
      "type": "function"
    },
    {
      "inputs": [
        {
          "internalType": "address",
          "name": "owner",
          "type": "address"
        },
        {
          "internalType": "address",
          "name": "operator",
          "type": "address"
        }
      ],
      "name": "isApprovedForAll",
      "outputs": [
        {
          "internalType": "bool",
          "name": "",
          "type": "bool"
        }
      ],
      "stateMutability": "view",
      "type": "function"
    },
    {
      "inputs": [],
      "name": "maxSupply",
      "outputs": [
        {
          "internalType": "uint256",
          "name": "",
          "type": "uint256"
        }
      ],
      "stateMutability": "view",
      "type": "function"
    },
    {
      "inputs": [],
      "name": "mintNFT",
      "outputs": [],
      "stateMutability": "payable",
      "type": "function"
    },
    {
      "inputs": [],
      "name": "mintPrice",
      "outputs": [
        {
          "internalType": "uint256",
          "name": "",
          "type": "uint256"
        }
      ],
      "stateMutability": "view",
      "type": "function"
    },
    {
      "inputs": [],
      "name": "name",
      "outputs": [
        {
          "internalType": "string",
          "name": "",
          "type": "string"
        }
      ],
      "stateMutability": "view",
      "type": "function"
    },
    {
      "inputs": [
        {
          "internalType": "uint256",
          "name": "tokenId",
          "type": "uint256"
        }
      ],
      "name": "ownerOf",
      "outputs": [
        {
          "internalType": "address",
          "name": "",
          "type": "address"
        }
      ],
      "stateMutability": "view",
      "type": "function"
    },
    {
      "inputs": [
        {
          "internalType": "address",
          "name": "from",
          "type": "address"
        },
        {
          "internalType": "address",
          "name": "to",
          "type": "address"
        },
        {
          "internalType": "uint256",
          "name": "tokenId",
          "type": "uint256"
        }
      ],
      "name": "safeTransferFrom",
      "outputs": [],
      "stateMutability": "nonpayable",
      "type": "function"
    },
    {
      "inputs": [
        {
          "internalType": "address",
          "name": "from",
          "type": "address"
        },
        {
          "internalType": "address",
          "name": "to",
          "type": "address"
        },
        {
          "internalType": "uint256",
          "name": "tokenId",
          "type": "uint256"
        },
        {
          "internalType": "bytes",
          "name": "data",
          "type": "bytes"
        }
      ],
      "name": "safeTransferFrom",
      "outputs": [],
      "stateMutability": "nonpayable",
      "type": "function"
    },
    {
      "inputs": [
        {
          "internalType": "address",
          "name": "operator",
          "type": "address"
        },
        {
          "internalType": "bool",
          "name": "approved",
          "type": "bool"
        }
      ],
      "name": "setApprovalForAll",
      "outputs": [],
      "stateMutability": "nonpayable",
      "type": "function"
    },
    {
      "inputs": [
        {
          "internalType": "bytes4",
          "name": "interfaceId",
          "type": "bytes4"
        }
      ],
      "name": "supportsInterface",
      "outputs": [
        {
          "internalType": "bool",
          "name": "",
          "type": "bool"
        }
      ],
      "stateMutability": "view",
      "type": "function"
    },
    {
      "inputs": [],
      "name": "symbol",
      "outputs": [
        {
          "internalType": "string",
          "name": "",
          "type": "string"
        }
      ],
      "stateMutability": "view",
      "type": "function"
    },
    {
      "inputs": [
        {
          "internalType": "uint256",
          "name": "tokenId",
          "type": "uint256"
        }
      ],
      "name": "tokenURI",
      "outputs": [
        {
          "internalType": "string",
          "name": "",
          "type": "string"
        }
      ],
      "stateMutability": "view",
      "type": "function"
    },
    {
      "inputs": [
        {
          "internalType": "address",
          "name": "from",
          "type": "address"
        },
        {
          "internalType": "address",
          "name": "to",
          "type": "address"
        },
        {
          "internalType": "uint256",
          "name": "tokenId",
          "type": "uint256"
        }
      ],
      "name": "transferFrom",
      "outputs": [],
      "stateMutability": "nonpayable",
      "type": "function"
    }
  ],
  "bytecode": "0x60806040523480156200001157600080fd5b506040518060400160405280600b81526020017f426f6b44414f4e465456310000000000000000000000000000000000000000008152506040518060400160405280600b81526020017f426f6b44616f4e46545631000000000000000000000000000000000000000000815250816000908051906020019062000096929190620000b8565b508060019080519060200190620000af929190620000b8565b505050620001cd565b828054620000c69062000197565b90600052602060002090601f016020900481019282620000ea576000855562000136565b82601f106200010557805160ff191683800117855562000136565b8280016001018555821562000136579182015b828111156200013557825182559160200191906001019062000118565b5b50905062000145919062000149565b5090565b5b80821115620001645760008160009055506001016200014a565b5090565b7f4e487b7100000000000000000000000000000000000000000000000000000000600052602260045260246000fd5b60006002820490506001821680620001b057607f821691505b60208210811415620001c757620001c662000168565b5b50919050565b612df080620001dd6000396000f3fe6080604052600436106100f35760003560e01c80636817c76c1161008a578063b88d4fde11610059578063b88d4fde1461031b578063c87b56dd14610344578063d5abeb0114610381578063e985e9c5146103ac576100f3565b80636817c76c1461025f57806370a082311461028a57806395d89b41146102c7578063a22cb465146102f2576100f3565b806314f710fe116100c657806314f710fe146101c657806323b872dd146101d057806342842e0e146101f95780636352211e14610222576100f3565b806301ffc9a7146100f857806306fdde0314610135578063081812fc14610160578063095ea7b31461019d575b600080fd5b34801561010457600080fd5b5061011f600480360381019061011a9190611e13565b6103e9565b60405161012c9190611e5b565b60405180910390f35b34801561014157600080fd5b5061014a6104cb565b6040516101579190611f0f565b60405180910390f35b34801561016c57600080fd5b5061018760048036038101906101829190611f67565b61055d565b6040516101949190611fd5565b60405180910390f35b3480156101a957600080fd5b506101c460048036038101906101bf919061201c565b6105a3565b005b6101ce6106bb565b005b3480156101dc57600080fd5b506101f760048036038101906101f2919061205c565b6107de565b005b34801561020557600080fd5b50610220600480360381019061021b919061205c565b61083e565b005b34801561022e57600080fd5b5061024960048036038101906102449190611f67565b61085e565b6040516102569190611fd5565b60405180910390f35b34801561026b57600080fd5b506102746108e5565b60405161028191906120be565b60405180910390f35b34801561029657600080fd5b506102b160048036038101906102ac91906120d9565b6108f0565b6040516102be91906120be565b60405180910390f35b3480156102d357600080fd5b506102dc6109a8565b6040516102e99190611f0f565b60405180910390f35b3480156102fe57600080fd5b5061031960048036038101906103149190612132565b610a3a565b005b34801561032757600080fd5b50610342600480360381019061033d91906122a7565b610a50565b005b34801561035057600080fd5b5061036b60048036038101906103669190611f67565b610ab2565b6040516103789190611f0f565b60405180910390f35b34801561038d57600080fd5b50610396610ac4565b6040516103a391906120be565b60405180910390f35b3480156103b857600080fd5b506103d360048036038101906103ce919061232a565b610ac9565b6040516103e09190611e5b565b60405180910390f35b60007f80ac58cd000000000000000000000000000000000000000000000000000000007bffffffffffffffffffffffffffffffffffffffffffffffffffffffff1916827bffffffffffffffffffffffffffffffffffffffffffffffffffffffff191614806104b457507f5b5e139f000000000000000000000000000000000000000000000000000000007bffffffffffffffffffffffffffffffffffffffffffffffffffffffff1916827bffffffffffffffffffffffffffffffffffffffffffffffffffffffff1916145b806104c457506104c382610b5d565b5b9050919050565b6060600080546104da90612399565b80601f016020809104026020016040519081016040528092919081815260200182805461050690612399565b80156105535780601f1061052857610100808354040283529160200191610553565b820191906000526020600020905b81548152906001019060200180831161053657829003601f168201915b5050505050905090565b600061056882610bc7565b6004600083815260200190815260200160002060009054906101000a900473ffffffffffffffffffffffffffffffffffffffff169050919050565b60006105ae8261085e565b90508073ffffffffffffffffffffffffffffffffffffffff168373ffffffffffffffffffffffffffffffffffffffff16141561061f576040517f08c379a00000000000000000000000000000000000000000000000000000000081526004016106169061243d565b60405180910390fd5b8073ffffffffffffffffffffffffffffffffffffffff1661063e610c12565b73ffffffffffffffffffffffffffffffffffffffff16148061066d575061066c81610667610c12565b610ac9565b5b6106ac576040517f08c379a00000000000000000000000000000000000000000000000000000000081526004016106a3906124cf565b60405180910390fd5b6106b68383610c1a565b505050565b600073619d27fd73359e689e3f08dae7080cf04a7ac84c905066038d7ea4c68000341461071d576040517f08c379a00000000000000000000000000000000000000000000000000000000081526004016107149061253b565b60405180910390fd5b60008173ffffffffffffffffffffffffffffffffffffffff16346040516107439061258c565b60006040518083038185875af1925050503d8060008114610780576040519150601f19603f3d011682016040523d82523d6000602084013e610785565b606091505b50509050806107c9576040517f08c379a00000000000000000000000000000000000000000000000000000000081526004016107c0906125ed565b60405180910390fd5b6107da336107d5610cd3565b610cf3565b5050565b6107ef6107e9610c12565b82610d73565b61082e576040517f08c379a00000000000000000000000000000000000000000000000000000000081526004016108259061267f565b60405180910390fd5b610839838383610e08565b505050565b61085983838360405180602001604052806000815250610a50565b505050565b60008061086a83611102565b9050600073ffffffffffffffffffffffffffffffffffffffff168173ffffffffffffffffffffffffffffffffffffffff1614156108dc576040517f08c379a00000000000000000000000000000000000000000000000000000000081526004016108d3906126eb565b60405180910390fd5b80915050919050565b66038d7ea4c6800081565b60008073ffffffffffffffffffffffffffffffffffffffff168273ffffffffffffffffffffffffffffffffffffffff161415610961576040517f08c379a00000000000000000000000000000000000000000000000000000000081526004016109589061277d565b60405180910390fd5b600360008373ffffffffffffffffffffffffffffffffffffffff1673ffffffffffffffffffffffffffffffffffffffff168152602001908152602001600020549050919050565b6060600180546109b790612399565b80601f01602080910402602001604051908101604052809291908181526020018280546109e390612399565b8015610a305780601f10610a0557610100808354040283529160200191610a30565b820191906000526020600020905b815481529060010190602001808311610a1357829003601f168201915b5050505050905090565b610a4c610a45610c12565b838361113f565b5050565b610a61610a5b610c12565b83610d73565b610aa0576040517f08c379a0000000000000000000000000000000000000000000000000000000008152600401610a979061267f565b60405180910390fd5b610aac848484846112ac565b50505050565b6060610abd82611308565b9050919050565b606f81565b6000600560008473ffffffffffffffffffffffffffffffffffffffff1673ffffffffffffffffffffffffffffffffffffffff16815260200190815260200160002060008373ffffffffffffffffffffffffffffffffffffffff1673ffffffffffffffffffffffffffffffffffffffff16815260200190815260200160002060009054906101000a900460ff16905092915050565b60007f01ffc9a7000000000000000000000000000000000000000000000000000000007bffffffffffffffffffffffffffffffffffffffffffffffffffffffff1916827bffffffffffffffffffffffffffffffffffffffffffffffffffffffff1916149050919050565b610bd08161141b565b610c0f576040517f08c379a0000000000000000000000000000000000000000000000000000000008152600401610c06906126eb565b60405180910390fd5b50565b600033905090565b816004600083815260200190815260200160002060006101000a81548173ffffffffffffffffffffffffffffffffffffffff021916908373ffffffffffffffffffffffffffffffffffffffff160217905550808273ffffffffffffffffffffffffffffffffffffffff16610c8d8361085e565b73ffffffffffffffffffffffffffffffffffffffff167f8c5be1e5ebec7d5bd14f71427d1e84f3dd0314c0f7b2291e5b200ac8c7c3b92560405160405180910390a45050565b60606040518060600160405280603d8152602001612d7e603d9139905090565b6000610cff600761145c565b9050606f610d0d600761145c565b10610d1757600080fd5b610d21600761146a565b610d2b8382611480565b610d35818361149e565b7f1c05098ed1ff38e6238d2b1b04b2c7977d4c94ce651bda6473f9dba8dbf01da03382604051610d6692919061279d565b60405180910390a1505050565b600080610d7f8361085e565b90508073ffffffffffffffffffffffffffffffffffffffff168473ffffffffffffffffffffffffffffffffffffffff161480610dc15750610dc08185610ac9565b5b80610dff57508373ffffffffffffffffffffffffffffffffffffffff16610de78461055d565b73ffffffffffffffffffffffffffffffffffffffff16145b91505092915050565b8273ffffffffffffffffffffffffffffffffffffffff16610e288261085e565b73ffffffffffffffffffffffffffffffffffffffff1614610e7e576040517f08c379a0000000000000000000000000000000000000000000000000000000008152600401610e7590612838565b60405180910390fd5b600073ffffffffffffffffffffffffffffffffffffffff168273ffffffffffffffffffffffffffffffffffffffff161415610eee576040517f08c379a0000000000000000000000000000000000000000000000000000000008152600401610ee5906128ca565b60405180910390fd5b610efb8383836001611512565b8273ffffffffffffffffffffffffffffffffffffffff16610f1b8261085e565b73ffffffffffffffffffffffffffffffffffffffff1614610f71576040517f08c379a0000000000000000000000000000000000000000000000000000000008152600401610f6890612838565b60405180910390fd5b6004600082815260200190815260200160002060006101000a81549073ffffffffffffffffffffffffffffffffffffffff02191690556001600360008573ffffffffffffffffffffffffffffffffffffffff1673ffffffffffffffffffffffffffffffffffffffff168152602001908152602001600020600082825403925050819055506001600360008473ffffffffffffffffffffffffffffffffffffffff1673ffffffffffffffffffffffffffffffffffffffff16815260200190815260200160002060008282540192505081905550816002600083815260200190815260200160002060006101000a81548173ffffffffffffffffffffffffffffffffffffffff021916908373ffffffffffffffffffffffffffffffffffffffff160217905550808273ffffffffffffffffffffffffffffffffffffffff168473ffffffffffffffffffffffffffffffffffffffff167fddf252ad1be2c89b69c2b068fc378daa952ba7f163c4a11628f55a4df523b3ef60405160405180910390a46110fd8383836001611638565b505050565b60006002600083815260200190815260200160002060009054906101000a900473ffffffffffffffffffffffffffffffffffffffff169050919050565b8173ffffffffffffffffffffffffffffffffffffffff168373ffffffffffffffffffffffffffffffffffffffff1614156111ae576040517f08c379a00000000000000000000000000000000000000000000000000000000081526004016111a590612936565b60405180910390fd5b80600560008573ffffffffffffffffffffffffffffffffffffffff1673ffffffffffffffffffffffffffffffffffffffff16815260200190815260200160002060008473ffffffffffffffffffffffffffffffffffffffff1673ffffffffffffffffffffffffffffffffffffffff16815260200190815260200160002060006101000a81548160ff0219169083151502179055508173ffffffffffffffffffffffffffffffffffffffff168373ffffffffffffffffffffffffffffffffffffffff167f17307eab39ab6107e8899845ad3d59bd9653f200f220920489ca2b5937696c318360405161129f9190611e5b565b60405180910390a3505050565b6112b7848484610e08565b6112c38484848461163e565b611302576040517f08c379a00000000000000000000000000000000000000000000000000000000081526004016112f9906129c8565b60405180910390fd5b50505050565b606061131382610bc7565b600060066000848152602001908152602001600020805461133390612399565b80601f016020809104026020016040519081016040528092919081815260200182805461135f90612399565b80156113ac5780601f10611381576101008083540402835291602001916113ac565b820191906000526020600020905b81548152906001019060200180831161138f57829003601f168201915b5050505050905060006113bd610cd3565b90506000815114156113d3578192505050611416565b6000825111156114085780826040516020016113f0929190612a24565b60405160208183030381529060405292505050611416565b611411846117d5565b925050505b919050565b60008073ffffffffffffffffffffffffffffffffffffffff1661143d83611102565b73ffffffffffffffffffffffffffffffffffffffff1614159050919050565b600081600001549050919050565b6001816000016000828254019250508190555050565b61149a82826040518060200160405280600081525061183d565b5050565b6114a78261141b565b6114e6576040517f08c379a00000000000000000000000000000000000000000000000000000000081526004016114dd90612aba565b60405180910390fd5b8060066000848152602001908152602001600020908051906020019061150d929190611d04565b505050565b600181111561163257600073ffffffffffffffffffffffffffffffffffffffff168473ffffffffffffffffffffffffffffffffffffffff16146115a65780600360008673ffffffffffffffffffffffffffffffffffffffff1673ffffffffffffffffffffffffffffffffffffffff168152602001908152602001600020600082825461159e9190612b09565b925050819055505b600073ffffffffffffffffffffffffffffffffffffffff168373ffffffffffffffffffffffffffffffffffffffff16146116315780600360008573ffffffffffffffffffffffffffffffffffffffff1673ffffffffffffffffffffffffffffffffffffffff16815260200190815260200160002060008282546116299190612b3d565b925050819055505b5b50505050565b50505050565b600061165f8473ffffffffffffffffffffffffffffffffffffffff16611898565b156117c8578373ffffffffffffffffffffffffffffffffffffffff1663150b7a02611688610c12565b8786866040518563ffffffff1660e01b81526004016116aa9493929190612be8565b602060405180830381600087803b1580156116c457600080fd5b505af19250505080156116f557506040513d601f19601f820116820180604052508101906116f29190612c49565b60015b611778573d8060008114611725576040519150601f19603f3d011682016040523d82523d6000602084013e61172a565b606091505b50600081511415611770576040517f08c379a0000000000000000000000000000000000000000000000000000000008152600401611767906129c8565b60405180910390fd5b805181602001fd5b63150b7a0260e01b7bffffffffffffffffffffffffffffffffffffffffffffffffffffffff1916817bffffffffffffffffffffffffffffffffffffffffffffffffffffffff1916149150506117cd565b600190505b949350505050565b60606117e082610bc7565b60006117ea610cd3565b9050600081511161180a5760405180602001604052806000815250611835565b80611814846118bb565b604051602001611825929190612a24565b6040516020818303038152906040525b915050919050565b6118478383611993565b611854600084848461163e565b611893576040517f08c379a000000000000000000000000000000000000000000000000000000000815260040161188a906129c8565b60405180910390fd5b505050565b6000808273ffffffffffffffffffffffffffffffffffffffff163b119050919050565b6060600060016118ca84611bb1565b01905060008167ffffffffffffffff8111156118e9576118e861217c565b5b6040519080825280601f01601f19166020018201604052801561191b5781602001600182028036833780820191505090505b509050600082602001820190505b600115611988578080600190039150507f3031323334353637383961626364656600000000000000000000000000000000600a86061a8153600a858161197257611971612c76565b5b049450600085141561198357611988565b611929565b819350505050919050565b600073ffffffffffffffffffffffffffffffffffffffff168273ffffffffffffffffffffffffffffffffffffffff161415611a03576040517f08c379a00000000000000000000000000000000000000000000000000000000081526004016119fa90612cf1565b60405180910390fd5b611a0c8161141b565b15611a4c576040517f08c379a0000000000000000000000000000000000000000000000000000000008152600401611a4390612d5d565b60405180910390fd5b611a5a600083836001611512565b611a638161141b565b15611aa3576040517f08c379a0000000000000000000000000000000000000000000000000000000008152600401611a9a90612d5d565b60405180910390fd5b6001600360008473ffffffffffffffffffffffffffffffffffffffff1673ffffffffffffffffffffffffffffffffffffffff16815260200190815260200160002060008282540192505081905550816002600083815260200190815260200160002060006101000a81548173ffffffffffffffffffffffffffffffffffffffff021916908373ffffffffffffffffffffffffffffffffffffffff160217905550808273ffffffffffffffffffffffffffffffffffffffff16600073ffffffffffffffffffffffffffffffffffffffff167fddf252ad1be2c89b69c2b068fc378daa952ba7f163c4a11628f55a4df523b3ef60405160405180910390a4611bad600083836001611638565b5050565b600080600090507a184f03e93ff9f4daa797ed6e38ed64bf6a1f0100000000000000008310611c0f577a184f03e93ff9f4daa797ed6e38ed64bf6a1f0100000000000000008381611c0557611c04612c76565b5b0492506040810190505b6d04ee2d6d415b85acef81000000008310611c4c576d04ee2d6d415b85acef81000000008381611c4257611c41612c76565b5b0492506020810190505b662386f26fc100008310611c7b57662386f26fc100008381611c7157611c70612c76565b5b0492506010810190505b6305f5e1008310611ca4576305f5e1008381611c9a57611c99612c76565b5b0492506008810190505b6127108310611cc9576127108381611cbf57611cbe612c76565b5b0492506004810190505b60648310611cec5760648381611ce257611ce1612c76565b5b0492506002810190505b600a8310611cfb576001810190505b80915050919050565b828054611d1090612399565b90600052602060002090601f016020900481019282611d325760008555611d79565b82601f10611d4b57805160ff1916838001178555611d79565b82800160010185558215611d79579182015b82811115611d78578251825591602001919060010190611d5d565b5b509050611d869190611d8a565b5090565b5b80821115611da3576000816000905550600101611d8b565b5090565b6000604051905090565b600080fd5b600080fd5b60007fffffffff0000000000000000000000000000000000000000000000000000000082169050919050565b611df081611dbb565b8114611dfb57600080fd5b50565b600081359050611e0d81611de7565b92915050565b600060208284031215611e2957611e28611db1565b5b6000611e3784828501611dfe565b91505092915050565b60008115159050919050565b611e5581611e40565b82525050565b6000602082019050611e706000830184611e4c565b92915050565b600081519050919050565b600082825260208201905092915050565b60005b83811015611eb0578082015181840152602081019050611e95565b83811115611ebf576000848401525b50505050565b6000601f19601f8301169050919050565b6000611ee182611e76565b611eeb8185611e81565b9350611efb818560208601611e92565b611f0481611ec5565b840191505092915050565b60006020820190508181036000830152611f298184611ed6565b905092915050565b6000819050919050565b611f4481611f31565b8114611f4f57600080fd5b50565b600081359050611f6181611f3b565b92915050565b600060208284031215611f7d57611f7c611db1565b5b6000611f8b84828501611f52565b91505092915050565b600073ffffffffffffffffffffffffffffffffffffffff82169050919050565b6000611fbf82611f94565b9050919050565b611fcf81611fb4565b82525050565b6000602082019050611fea6000830184611fc6565b92915050565b611ff981611fb4565b811461200457600080fd5b50565b60008135905061201681611ff0565b92915050565b6000806040838503121561203357612032611db1565b5b600061204185828601612007565b925050602061205285828601611f52565b9150509250929050565b60008060006060848603121561207557612074611db1565b5b600061208386828701612007565b935050602061209486828701612007565b92505060406120a586828701611f52565b9150509250925092565b6120b881611f31565b82525050565b60006020820190506120d360008301846120af565b92915050565b6000602082840312156120ef576120ee611db1565b5b60006120fd84828501612007565b91505092915050565b61210f81611e40565b811461211a57600080fd5b50565b60008135905061212c81612106565b92915050565b6000806040838503121561214957612148611db1565b5b600061215785828601612007565b92505060206121688582860161211d565b9150509250929050565b600080fd5b600080fd5b7f4e487b7100000000000000000000000000000000000000000000000000000000600052604160045260246000fd5b6121b482611ec5565b810181811067ffffffffffffffff821117156121d3576121d261217c565b5b80604052505050565b60006121e6611da7565b90506121f282826121ab565b919050565b600067ffffffffffffffff8211156122125761221161217c565b5b61221b82611ec5565b9050602081019050919050565b82818337600083830152505050565b600061224a612245846121f7565b6121dc565b90508281526020810184848401111561226657612265612177565b5b612271848285612228565b509392505050565b600082601f83011261228e5761228d612172565b5b813561229e848260208601612237565b91505092915050565b600080600080608085870312156122c1576122c0611db1565b5b60006122cf87828801612007565b94505060206122e087828801612007565b93505060406122f187828801611f52565b925050606085013567ffffffffffffffff81111561231257612311611db6565b5b61231e87828801612279565b91505092959194509250565b6000806040838503121561234157612340611db1565b5b600061234f85828601612007565b925050602061236085828601612007565b9150509250929050565b7f4e487b7100000000000000000000000000000000000000000000000000000000600052602260045260246000fd5b600060028204905060018216806123b157607f821691505b602082108114156123c5576123c461236a565b5b50919050565b7f4552433732313a20617070726f76616c20746f2063757272656e74206f776e6560008201527f7200000000000000000000000000000000000000000000000000000000000000602082015250565b6000612427602183611e81565b9150612432826123cb565b604082019050919050565b600060208201905081810360008301526124568161241a565b9050919050565b7f4552433732313a20617070726f76652063616c6c6572206973206e6f7420746f60008201527f6b656e206f776e6572206f7220617070726f76656420666f7220616c6c000000602082015250565b60006124b9603d83611e81565b91506124c48261245d565b604082019050919050565b600060208201905081810360008301526124e8816124ac565b9050919050565b7f57524f4e475f5052494345000000000000000000000000000000000000000000600082015250565b6000612525600b83611e81565b9150612530826124ef565b602082019050919050565b6000602082019050818103600083015261255481612518565b9050919050565b600081905092915050565b50565b600061257660008361255b565b915061258182612566565b600082019050919050565b600061259782612569565b9150819050919050565b7f4661696c656420746f2073656e64204574686572000000000000000000000000600082015250565b60006125d7601483611e81565b91506125e2826125a1565b602082019050919050565b60006020820190508181036000830152612606816125ca565b9050919050565b7f4552433732313a2063616c6c6572206973206e6f7420746f6b656e206f776e6560008201527f72206f7220617070726f76656400000000000000000000000000000000000000602082015250565b6000612669602d83611e81565b91506126748261260d565b604082019050919050565b600060208201905081810360008301526126988161265c565b9050919050565b7f4552433732313a20696e76616c696420746f6b656e2049440000000000000000600082015250565b60006126d5601883611e81565b91506126e08261269f565b602082019050919050565b60006020820190508181036000830152612704816126c8565b9050919050565b7f4552433732313a2061646472657373207a65726f206973206e6f74206120766160008201527f6c6964206f776e65720000000000000000000000000000000000000000000000602082015250565b6000612767602983611e81565b91506127728261270b565b604082019050919050565b600060208201905081810360008301526127968161275a565b9050919050565b60006040820190506127b26000830185611fc6565b6127bf60208301846120af565b9392505050565b7f4552433732313a207472616e736665722066726f6d20696e636f72726563742060008201527f6f776e6572000000000000000000000000000000000000000000000000000000602082015250565b6000612822602583611e81565b915061282d826127c6565b604082019050919050565b6000602082019050818103600083015261285181612815565b9050919050565b7f4552433732313a207472616e7366657220746f20746865207a65726f2061646460008201527f7265737300000000000000000000000000000000000000000000000000000000602082015250565b60006128b4602483611e81565b91506128bf82612858565b604082019050919050565b600060208201905081810360008301526128e3816128a7565b9050919050565b7f4552433732313a20617070726f766520746f2063616c6c657200000000000000600082015250565b6000612920601983611e81565b915061292b826128ea565b602082019050919050565b6000602082019050818103600083015261294f81612913565b9050919050565b7f4552433732313a207472616e7366657220746f206e6f6e20455243373231526560008201527f63656976657220696d706c656d656e7465720000000000000000000000000000602082015250565b60006129b2603283611e81565b91506129bd82612956565b604082019050919050565b600060208201905081810360008301526129e1816129a5565b9050919050565b600081905092915050565b60006129fe82611e76565b612a0881856129e8565b9350612a18818560208601611e92565b80840191505092915050565b6000612a3082856129f3565b9150612a3c82846129f3565b91508190509392505050565b7f45524337323155524953746f726167653a2055524920736574206f66206e6f6e60008201527f6578697374656e7420746f6b656e000000000000000000000000000000000000602082015250565b6000612aa4602e83611e81565b9150612aaf82612a48565b604082019050919050565b60006020820190508181036000830152612ad381612a97565b9050919050565b7f4e487b7100000000000000000000000000000000000000000000000000000000600052601160045260246000fd5b6000612b1482611f31565b9150612b1f83611f31565b925082821015612b3257612b31612ada565b5b828203905092915050565b6000612b4882611f31565b9150612b5383611f31565b9250827fffffffffffffffffffffffffffffffffffffffffffffffffffffffffffffffff03821115612b8857612b87612ada565b5b828201905092915050565b600081519050919050565b600082825260208201905092915050565b6000612bba82612b93565b612bc48185612b9e565b9350612bd4818560208601611e92565b612bdd81611ec5565b840191505092915050565b6000608082019050612bfd6000830187611fc6565b612c0a6020830186611fc6565b612c1760408301856120af565b8181036060830152612c298184612baf565b905095945050505050565b600081519050612c4381611de7565b92915050565b600060208284031215612c5f57612c5e611db1565b5b6000612c6d84828501612c34565b91505092915050565b7f4e487b7100000000000000000000000000000000000000000000000000000000600052601260045260246000fd5b7f4552433732313a206d696e7420746f20746865207a65726f2061646472657373600082015250565b6000612cdb602083611e81565b9150612ce682612ca5565b602082019050919050565b60006020820190508181036000830152612d0a81612cce565b9050919050565b7f4552433732313a20746f6b656e20616c7265616479206d696e74656400000000600082015250565b6000612d47601c83611e81565b9150612d5282612d11565b602082019050919050565b60006020820190508181036000830152612d7681612d3a565b905091905056fe68747470733a2f2f73746f726167652e676f6f676c65617069732e636f6d2f626f6b2d64616f2f76657273696f6e312f6d657461646174612e6a736f6ea2646970667358221220e22d7de3ba342375766eb26f388e644611e5aec04a0feb54997f5f11e58988bc64736f6c63430008090033",
  "linkReferences": {},
  "deployedLinkReferences": {}
}